{
  "contractName": "ZCToken",
  "abi": [
    {
      "inputs": [],
      "stateMutability": "nonpayable",
      "type": "constructor"
    },
    {
      "anonymous": false,
      "inputs": [
        {
          "indexed": false,
          "internalType": "address",
          "name": "previousAdmin",
          "type": "address"
        },
        {
          "indexed": false,
          "internalType": "address",
          "name": "newAdmin",
          "type": "address"
        }
      ],
      "name": "AdminChanged",
      "type": "event"
    },
    {
      "anonymous": false,
      "inputs": [
        {
          "indexed": true,
          "internalType": "address",
          "name": "owner",
          "type": "address"
        },
        {
          "indexed": true,
          "internalType": "address",
          "name": "spender",
          "type": "address"
        },
        {
          "indexed": false,
          "internalType": "uint256",
          "name": "value",
          "type": "uint256"
        }
      ],
      "name": "Approval",
      "type": "event"
    },
    {
      "anonymous": false,
      "inputs": [
        {
          "indexed": true,
          "internalType": "address",
          "name": "beacon",
          "type": "address"
        }
      ],
      "name": "BeaconUpgraded",
      "type": "event"
    },
    {
      "anonymous": false,
      "inputs": [
        {
          "indexed": true,
          "internalType": "address",
          "name": "previousOwner",
          "type": "address"
        },
        {
          "indexed": true,
          "internalType": "address",
          "name": "newOwner",
          "type": "address"
        }
      ],
      "name": "OwnershipTransferred",
      "type": "event"
    },
    {
      "anonymous": false,
      "inputs": [
        {
          "indexed": false,
          "internalType": "address",
          "name": "account",
          "type": "address"
        }
      ],
      "name": "Paused",
      "type": "event"
    },
    {
      "anonymous": false,
      "inputs": [
        {
          "indexed": true,
          "internalType": "address",
          "name": "from",
          "type": "address"
        },
        {
          "indexed": true,
          "internalType": "address",
          "name": "to",
          "type": "address"
        },
        {
          "indexed": false,
          "internalType": "uint256",
          "name": "value",
          "type": "uint256"
        }
      ],
      "name": "Transfer",
      "type": "event"
    },
    {
      "anonymous": false,
      "inputs": [
        {
          "indexed": false,
          "internalType": "address",
          "name": "account",
          "type": "address"
        }
      ],
      "name": "Unpaused",
      "type": "event"
    },
    {
      "anonymous": false,
      "inputs": [
        {
          "indexed": true,
          "internalType": "address",
          "name": "implementation",
          "type": "address"
        }
      ],
      "name": "Upgraded",
      "type": "event"
    },
    {
      "inputs": [],
      "name": "DOMAIN_SEPARATOR",
      "outputs": [
        {
          "internalType": "bytes32",
          "name": "",
          "type": "bytes32"
        }
      ],
      "stateMutability": "view",
      "type": "function",
      "constant": true
    },
    {
      "inputs": [
        {
          "internalType": "address",
          "name": "owner",
          "type": "address"
        },
        {
          "internalType": "address",
          "name": "spender",
          "type": "address"
        }
      ],
      "name": "allowance",
      "outputs": [
        {
          "internalType": "uint256",
          "name": "",
          "type": "uint256"
        }
      ],
      "stateMutability": "view",
      "type": "function",
      "constant": true
    },
    {
      "inputs": [
        {
          "internalType": "address",
          "name": "spender",
          "type": "address"
        },
        {
          "internalType": "uint256",
          "name": "amount",
          "type": "uint256"
        }
      ],
      "name": "approve",
      "outputs": [
        {
          "internalType": "bool",
          "name": "",
          "type": "bool"
        }
      ],
      "stateMutability": "nonpayable",
      "type": "function"
    },
    {
      "inputs": [
        {
          "internalType": "address",
          "name": "account",
          "type": "address"
        }
      ],
      "name": "balanceOf",
      "outputs": [
        {
          "internalType": "uint256",
          "name": "",
          "type": "uint256"
        }
      ],
      "stateMutability": "view",
      "type": "function",
      "constant": true
    },
    {
      "inputs": [],
      "name": "decimals",
      "outputs": [
        {
          "internalType": "uint8",
          "name": "",
          "type": "uint8"
        }
      ],
      "stateMutability": "view",
      "type": "function",
      "constant": true
    },
    {
      "inputs": [
        {
          "internalType": "address",
          "name": "spender",
          "type": "address"
        },
        {
          "internalType": "uint256",
          "name": "subtractedValue",
          "type": "uint256"
        }
      ],
      "name": "decreaseAllowance",
      "outputs": [
        {
          "internalType": "bool",
          "name": "",
          "type": "bool"
        }
      ],
      "stateMutability": "nonpayable",
      "type": "function"
    },
    {
      "inputs": [
        {
          "internalType": "address",
          "name": "spender",
          "type": "address"
        },
        {
          "internalType": "uint256",
          "name": "addedValue",
          "type": "uint256"
        }
      ],
      "name": "increaseAllowance",
      "outputs": [
        {
          "internalType": "bool",
          "name": "",
          "type": "bool"
        }
      ],
      "stateMutability": "nonpayable",
      "type": "function"
    },
    {
      "inputs": [],
      "name": "name",
      "outputs": [
        {
          "internalType": "string",
          "name": "",
          "type": "string"
        }
      ],
      "stateMutability": "view",
      "type": "function",
      "constant": true
    },
    {
      "inputs": [
        {
          "internalType": "address",
          "name": "owner",
          "type": "address"
        }
      ],
      "name": "nonces",
      "outputs": [
        {
          "internalType": "uint256",
          "name": "",
          "type": "uint256"
        }
      ],
      "stateMutability": "view",
      "type": "function",
      "constant": true
    },
    {
      "inputs": [],
      "name": "owner",
      "outputs": [
        {
          "internalType": "address",
          "name": "",
          "type": "address"
        }
      ],
      "stateMutability": "view",
      "type": "function",
      "constant": true
    },
    {
      "inputs": [],
      "name": "paused",
      "outputs": [
        {
          "internalType": "bool",
          "name": "",
          "type": "bool"
        }
      ],
      "stateMutability": "view",
      "type": "function",
      "constant": true
    },
    {
      "inputs": [
        {
          "internalType": "address",
          "name": "owner",
          "type": "address"
        },
        {
          "internalType": "address",
          "name": "spender",
          "type": "address"
        },
        {
          "internalType": "uint256",
          "name": "value",
          "type": "uint256"
        },
        {
          "internalType": "uint256",
          "name": "deadline",
          "type": "uint256"
        },
        {
          "internalType": "uint8",
          "name": "v",
          "type": "uint8"
        },
        {
          "internalType": "bytes32",
          "name": "r",
          "type": "bytes32"
        },
        {
          "internalType": "bytes32",
          "name": "s",
          "type": "bytes32"
        }
      ],
      "name": "permit",
      "outputs": [],
      "stateMutability": "nonpayable",
      "type": "function"
    },
    {
      "inputs": [],
      "name": "proxiableUUID",
      "outputs": [
        {
          "internalType": "bytes32",
          "name": "",
          "type": "bytes32"
        }
      ],
      "stateMutability": "view",
      "type": "function",
      "constant": true
    },
    {
      "inputs": [],
      "name": "renounceOwnership",
      "outputs": [],
      "stateMutability": "nonpayable",
      "type": "function"
    },
    {
      "inputs": [],
      "name": "symbol",
      "outputs": [
        {
          "internalType": "string",
          "name": "",
          "type": "string"
        }
      ],
      "stateMutability": "view",
      "type": "function",
      "constant": true
    },
    {
      "inputs": [],
      "name": "totalSupply",
      "outputs": [
        {
          "internalType": "uint256",
          "name": "",
          "type": "uint256"
        }
      ],
      "stateMutability": "view",
      "type": "function",
      "constant": true
    },
    {
      "inputs": [
        {
          "internalType": "address",
          "name": "to",
          "type": "address"
        },
        {
          "internalType": "uint256",
          "name": "amount",
          "type": "uint256"
        }
      ],
      "name": "transfer",
      "outputs": [
        {
          "internalType": "bool",
          "name": "",
          "type": "bool"
        }
      ],
      "stateMutability": "nonpayable",
      "type": "function"
    },
    {
      "inputs": [
        {
          "internalType": "address",
          "name": "from",
          "type": "address"
        },
        {
          "internalType": "address",
          "name": "to",
          "type": "address"
        },
        {
          "internalType": "uint256",
          "name": "amount",
          "type": "uint256"
        }
      ],
      "name": "transferFrom",
      "outputs": [
        {
          "internalType": "bool",
          "name": "",
          "type": "bool"
        }
      ],
      "stateMutability": "nonpayable",
      "type": "function"
    },
    {
      "inputs": [
        {
          "internalType": "address",
          "name": "newOwner",
          "type": "address"
        }
      ],
      "name": "transferOwnership",
      "outputs": [],
      "stateMutability": "nonpayable",
      "type": "function"
    },
    {
      "inputs": [
        {
          "internalType": "address",
          "name": "newImplementation",
          "type": "address"
        }
      ],
      "name": "upgradeTo",
      "outputs": [],
      "stateMutability": "nonpayable",
      "type": "function"
    },
    {
      "inputs": [
        {
          "internalType": "address",
          "name": "newImplementation",
          "type": "address"
        },
        {
          "internalType": "bytes",
          "name": "data",
          "type": "bytes"
        }
      ],
      "name": "upgradeToAndCall",
      "outputs": [],
      "stateMutability": "payable",
      "type": "function",
      "payable": true
    },
    {
      "inputs": [],
      "name": "initialize",
      "outputs": [],
      "stateMutability": "nonpayable",
      "type": "function"
    },
    {
      "inputs": [],
      "name": "pause",
      "outputs": [],
      "stateMutability": "nonpayable",
      "type": "function"
    },
    {
      "inputs": [],
      "name": "unpause",
      "outputs": [],
      "stateMutability": "nonpayable",
      "type": "function"
    },
    {
      "inputs": [
        {
          "internalType": "address",
          "name": "to",
          "type": "address"
        },
        {
          "internalType": "uint256",
          "name": "amount",
          "type": "uint256"
        }
      ],
      "name": "mint",
      "outputs": [],
      "stateMutability": "nonpayable",
      "type": "function"
    }
  ],
  "bytecode": "0x60a06040523073ffffffffffffffffffffffffffffffffffffffff1660809073ffffffffffffffffffffffffffffffffffffffff168152503480156200004457600080fd5b50600060019054906101000a900460ff166200006f5760008054906101000a900460ff161562000080565b6200007f6200013c60201b60201c565b5b620000c2576040517f08c379a0000000000000000000000000000000000000000000000000000000008152600401620000b99062000204565b60405180910390fd5b60008060019054906101000a900460ff16159050801562000113576001600060016101000a81548160ff02191690831515021790555060016000806101000a81548160ff0219169083151502179055505b8015620001355760008060016101000a81548160ff0219169083151502179055505b5062000226565b600062000154306200015a60201b620014091760201c565b15905090565b6000808273ffffffffffffffffffffffffffffffffffffffff163b119050919050565b600082825260208201905092915050565b7f496e697469616c697a61626c653a20636f6e747261637420697320616c72656160008201527f647920696e697469616c697a6564000000000000000000000000000000000000602082015250565b6000620001ec602e836200017d565b9150620001f9826200018e565b604082019050919050565b600060208201905081810360008301526200021f81620001dd565b9050919050565b60805161450f6200025e600039600081816106cf0152818161075e01528181610a1201528181610aa10152610b51015261450f6000f3fe6080604052600436106101665760003560e01c80635c975abb116100d15780638da5cb5b1161008a578063a9059cbb11610064578063a9059cbb146104fb578063d505accf14610538578063dd62ed3e14610561578063f2fde38b1461059e57610166565b80638da5cb5b1461046857806395d89b4114610493578063a457c2d7146104be57610166565b80635c975abb1461037e57806370a08231146103a9578063715018a6146103e65780637ecebe00146103fd5780638129fc1c1461043a5780638456cb591461045157610166565b80633659cfe6116101235780633659cfe61461029157806339509351146102ba5780633f4ba83a146102f757806340c10f191461030e5780634f1ef2861461033757806352d1902d1461035357610166565b806306fdde031461016b578063095ea7b31461019657806318160ddd146101d357806323b872dd146101fe578063313ce5671461023b5780633644e51514610266575b600080fd5b34801561017757600080fd5b506101806105c7565b60405161018d9190612c23565b60405180910390f35b3480156101a257600080fd5b506101bd60048036038101906101b89190612ced565b610659565b6040516101ca9190612d48565b60405180910390f35b3480156101df57600080fd5b506101e861067c565b6040516101f59190612d72565b60405180910390f35b34801561020a57600080fd5b5061022560048036038101906102209190612d8d565b610686565b6040516102329190612d48565b60405180910390f35b34801561024757600080fd5b506102506106b5565b60405161025d9190612dfc565b60405180910390f35b34801561027257600080fd5b5061027b6106be565b6040516102889190612e30565b60405180910390f35b34801561029d57600080fd5b506102b860048036038101906102b39190612e4b565b6106cd565b005b3480156102c657600080fd5b506102e160048036038101906102dc9190612ced565b610856565b6040516102ee9190612d48565b60405180910390f35b34801561030357600080fd5b5061030c610900565b005b34801561031a57600080fd5b5061033560048036038101906103309190612ced565b610986565b005b610351600480360381019061034c9190612fad565b610a10565b005b34801561035f57600080fd5b50610368610b4d565b6040516103759190612e30565b60405180910390f35b34801561038a57600080fd5b50610393610c06565b6040516103a09190612d48565b60405180910390f35b3480156103b557600080fd5b506103d060048036038101906103cb9190612e4b565b610c1d565b6040516103dd9190612d72565b60405180910390f35b3480156103f257600080fd5b506103fb610c66565b005b34801561040957600080fd5b50610424600480360381019061041f9190612e4b565b610cee565b6040516104319190612d72565b60405180910390f35b34801561044657600080fd5b5061044f610d3e565b005b34801561045d57600080fd5b50610466610f17565b005b34801561047457600080fd5b5061047d610f9d565b60405161048a9190613018565b60405180910390f35b34801561049f57600080fd5b506104a8610fc7565b6040516104b59190612c23565b60405180910390f35b3480156104ca57600080fd5b506104e560048036038101906104e09190612ced565b611059565b6040516104f29190612d48565b60405180910390f35b34801561050757600080fd5b50610522600480360381019061051d9190612ced565b611143565b60405161052f9190612d48565b60405180910390f35b34801561054457600080fd5b5061055f600480360381019061055a919061308b565b611166565b005b34801561056d57600080fd5b506105886004803603810190610583919061312d565b61128a565b6040516105959190612d72565b60405180910390f35b3480156105aa57600080fd5b506105c560048036038101906105c09190612e4b565b611311565b005b6060603680546105d69061319c565b80601f01602080910402602001604051908101604052809291908181526020018280546106029061319c565b801561064f5780601f106106245761010080835404028352916020019161064f565b820191906000526020600020905b81548152906001019060200180831161063257829003601f168201915b5050505050905090565b60008061066461142c565b9050610671818585611434565b600191505092915050565b6000603554905090565b60008061069161142c565b905061069e8582856115ff565b6106a985858561168b565b60019150509392505050565b60006012905090565b60006106c861190f565b905090565b7f000000000000000000000000000000000000000000000000000000000000000073ffffffffffffffffffffffffffffffffffffffff163073ffffffffffffffffffffffffffffffffffffffff16141561075c576040517f08c379a000000000000000000000000000000000000000000000000000000000815260040161075390613240565b60405180910390fd5b7f000000000000000000000000000000000000000000000000000000000000000073ffffffffffffffffffffffffffffffffffffffff1661079b61194f565b73ffffffffffffffffffffffffffffffffffffffff16146107f1576040517f08c379a00000000000000000000000000000000000000000000000000000000081526004016107e8906132d2565b60405180910390fd5b6107fa816119a6565b61085381600067ffffffffffffffff81111561081957610818612e82565b5b6040519080825280601f01601f19166020018201604052801561084b5781602001600182028036833780820191505090505b506000611a25565b50565b60008061086161142c565b90506108f5818585603460008673ffffffffffffffffffffffffffffffffffffffff1673ffffffffffffffffffffffffffffffffffffffff16815260200190815260200160002060008973ffffffffffffffffffffffffffffffffffffffff1673ffffffffffffffffffffffffffffffffffffffff168152602001908152602001600020546108f09190613321565b611434565b600191505092915050565b61090861142c565b73ffffffffffffffffffffffffffffffffffffffff16610926610f9d565b73ffffffffffffffffffffffffffffffffffffffff161461097c576040517f08c379a0000000000000000000000000000000000000000000000000000000008152600401610973906133c3565b60405180910390fd5b610984611b93565b565b61098e61142c565b73ffffffffffffffffffffffffffffffffffffffff166109ac610f9d565b73ffffffffffffffffffffffffffffffffffffffff1614610a02576040517f08c379a00000000000000000000000000000000000000000000000000000000081526004016109f9906133c3565b60405180910390fd5b610a0c8282611c35565b5050565b7f000000000000000000000000000000000000000000000000000000000000000073ffffffffffffffffffffffffffffffffffffffff163073ffffffffffffffffffffffffffffffffffffffff161415610a9f576040517f08c379a0000000000000000000000000000000000000000000000000000000008152600401610a9690613240565b60405180910390fd5b7f000000000000000000000000000000000000000000000000000000000000000073ffffffffffffffffffffffffffffffffffffffff16610ade61194f565b73ffffffffffffffffffffffffffffffffffffffff1614610b34576040517f08c379a0000000000000000000000000000000000000000000000000000000008152600401610b2b906132d2565b60405180910390fd5b610b3d826119a6565b610b4982826001611a25565b5050565b60007f000000000000000000000000000000000000000000000000000000000000000073ffffffffffffffffffffffffffffffffffffffff163073ffffffffffffffffffffffffffffffffffffffff1614610bdd576040517f08c379a0000000000000000000000000000000000000000000000000000000008152600401610bd490613455565b60405180910390fd5b7f360894a13ba1a3210667c828492db98dca3e2076cc3735a920a3ca505d382bbc60001b905090565b6000606560009054906101000a900460ff16905090565b6000603360008373ffffffffffffffffffffffffffffffffffffffff1673ffffffffffffffffffffffffffffffffffffffff168152602001908152602001600020549050919050565b610c6e61142c565b73ffffffffffffffffffffffffffffffffffffffff16610c8c610f9d565b73ffffffffffffffffffffffffffffffffffffffff1614610ce2576040517f08c379a0000000000000000000000000000000000000000000000000000000008152600401610cd9906133c3565b60405180910390fd5b610cec6000611d96565b565b6000610d3760fd60008473ffffffffffffffffffffffffffffffffffffffff1673ffffffffffffffffffffffffffffffffffffffff168152602001908152602001600020611e5c565b9050919050565b600060019054906101000a900460ff16610d665760008054906101000a900460ff1615610d6f565b610d6e611e6a565b5b610dae576040517f08c379a0000000000000000000000000000000000000000000000000000000008152600401610da5906134e7565b60405180910390fd5b60008060019054906101000a900460ff161590508015610dfe576001600060016101000a81548160ff02191690831515021790555060016000806101000a81548160ff0219169083151502179055505b610e726040518060400160405280600881526020017f5a432d546f6b656e0000000000000000000000000000000000000000000000008152506040518060400160405280600381526020017f5a43540000000000000000000000000000000000000000000000000000000000815250611e7b565b610e7a611ed8565b610e82611f31565b610ec06040518060400160405280600881526020017f5a432d546f6b656e000000000000000000000000000000000000000000000000815250611f8a565b610ec8612024565b610ef333610ed46106b5565b600a610ee0919061363a565b62989680610eee9190613685565b611c35565b8015610f145760008060016101000a81548160ff0219169083151502179055505b50565b610f1f61142c565b73ffffffffffffffffffffffffffffffffffffffff16610f3d610f9d565b73ffffffffffffffffffffffffffffffffffffffff1614610f93576040517f08c379a0000000000000000000000000000000000000000000000000000000008152600401610f8a906133c3565b60405180910390fd5b610f9b612075565b565b6000609760009054906101000a900473ffffffffffffffffffffffffffffffffffffffff16905090565b606060378054610fd69061319c565b80601f01602080910402602001604051908101604052809291908181526020018280546110029061319c565b801561104f5780601f106110245761010080835404028352916020019161104f565b820191906000526020600020905b81548152906001019060200180831161103257829003601f168201915b5050505050905090565b60008061106461142c565b90506000603460008373ffffffffffffffffffffffffffffffffffffffff1673ffffffffffffffffffffffffffffffffffffffff16815260200190815260200160002060008673ffffffffffffffffffffffffffffffffffffffff1673ffffffffffffffffffffffffffffffffffffffff1681526020019081526020016000205490508381101561112a576040517f08c379a000000000000000000000000000000000000000000000000000000000815260040161112190613751565b60405180910390fd5b6111378286868403611434565b60019250505092915050565b60008061114e61142c565b905061115b81858561168b565b600191505092915050565b834211156111a9576040517f08c379a00000000000000000000000000000000000000000000000000000000081526004016111a0906137bd565b60405180910390fd5b600060fe548888886111ba8c612118565b896040516020016111d0969594939291906137dd565b60405160208183030381529060405280519060200120905060006111f382612176565b9050600061120382878787612190565b90508973ffffffffffffffffffffffffffffffffffffffff168173ffffffffffffffffffffffffffffffffffffffff1614611273576040517f08c379a000000000000000000000000000000000000000000000000000000000815260040161126a9061388a565b60405180910390fd5b61127e8a8a8a611434565b50505050505050505050565b6000603460008473ffffffffffffffffffffffffffffffffffffffff1673ffffffffffffffffffffffffffffffffffffffff16815260200190815260200160002060008373ffffffffffffffffffffffffffffffffffffffff1673ffffffffffffffffffffffffffffffffffffffff16815260200190815260200160002054905092915050565b61131961142c565b73ffffffffffffffffffffffffffffffffffffffff16611337610f9d565b73ffffffffffffffffffffffffffffffffffffffff161461138d576040517f08c379a0000000000000000000000000000000000000000000000000000000008152600401611384906133c3565b60405180910390fd5b600073ffffffffffffffffffffffffffffffffffffffff168173ffffffffffffffffffffffffffffffffffffffff1614156113fd576040517f08c379a00000000000000000000000000000000000000000000000000000000081526004016113f49061391c565b60405180910390fd5b61140681611d96565b50565b6000808273ffffffffffffffffffffffffffffffffffffffff163b119050919050565b600033905090565b600073ffffffffffffffffffffffffffffffffffffffff168373ffffffffffffffffffffffffffffffffffffffff1614156114a4576040517f08c379a000000000000000000000000000000000000000000000000000000000815260040161149b906139ae565b60405180910390fd5b600073ffffffffffffffffffffffffffffffffffffffff168273ffffffffffffffffffffffffffffffffffffffff161415611514576040517f08c379a000000000000000000000000000000000000000000000000000000000815260040161150b90613a40565b60405180910390fd5b80603460008573ffffffffffffffffffffffffffffffffffffffff1673ffffffffffffffffffffffffffffffffffffffff16815260200190815260200160002060008473ffffffffffffffffffffffffffffffffffffffff1673ffffffffffffffffffffffffffffffffffffffff168152602001908152602001600020819055508173ffffffffffffffffffffffffffffffffffffffff168373ffffffffffffffffffffffffffffffffffffffff167f8c5be1e5ebec7d5bd14f71427d1e84f3dd0314c0f7b2291e5b200ac8c7c3b925836040516115f29190612d72565b60405180910390a3505050565b600061160b848461128a565b90507fffffffffffffffffffffffffffffffffffffffffffffffffffffffffffffffff81146116855781811015611677576040517f08c379a000000000000000000000000000000000000000000000000000000000815260040161166e90613aac565b60405180910390fd5b6116848484848403611434565b5b50505050565b600073ffffffffffffffffffffffffffffffffffffffff168373ffffffffffffffffffffffffffffffffffffffff1614156116fb576040517f08c379a00000000000000000000000000000000000000000000000000000000081526004016116f290613b3e565b60405180910390fd5b600073ffffffffffffffffffffffffffffffffffffffff168273ffffffffffffffffffffffffffffffffffffffff16141561176b576040517f08c379a000000000000000000000000000000000000000000000000000000000815260040161176290613bd0565b60405180910390fd5b6117768383836121bb565b6000603360008573ffffffffffffffffffffffffffffffffffffffff1673ffffffffffffffffffffffffffffffffffffffff168152602001908152602001600020549050818110156117fd576040517f08c379a00000000000000000000000000000000000000000000000000000000081526004016117f490613c62565b60405180910390fd5b818103603360008673ffffffffffffffffffffffffffffffffffffffff1673ffffffffffffffffffffffffffffffffffffffff1681526020019081526020016000208190555081603360008573ffffffffffffffffffffffffffffffffffffffff1673ffffffffffffffffffffffffffffffffffffffff16815260200190815260200160002060008282546118929190613321565b925050819055508273ffffffffffffffffffffffffffffffffffffffff168473ffffffffffffffffffffffffffffffffffffffff167fddf252ad1be2c89b69c2b068fc378daa952ba7f163c4a11628f55a4df523b3ef846040516118f69190612d72565b60405180910390a361190984848461228f565b50505050565b600061194a7f8b73c3c69bb8fe3d512ecc4cf759cc79239f7b179b0ffacaa9a75d522b39400f61193d612294565b61194561229e565b6122a8565b905090565b600061197d7f360894a13ba1a3210667c828492db98dca3e2076cc3735a920a3ca505d382bbc60001b6122e2565b60000160009054906101000a900473ffffffffffffffffffffffffffffffffffffffff16905090565b6119ae61142c565b73ffffffffffffffffffffffffffffffffffffffff166119cc610f9d565b73ffffffffffffffffffffffffffffffffffffffff1614611a22576040517f08c379a0000000000000000000000000000000000000000000000000000000008152600401611a19906133c3565b60405180910390fd5b50565b611a517f4910fdfa16fed3260ed0e7147f7cc6da11a60208b5b9406d12a635614ffd914360001b6122ec565b60000160009054906101000a900460ff1615611a7557611a70836122f6565b611b8e565b8273ffffffffffffffffffffffffffffffffffffffff166352d1902d6040518163ffffffff1660e01b8152600401602060405180830381865afa925050508015611add57506040513d601f19601f82011682018060405250810190611ada9190613c97565b60015b611b1c576040517f08c379a0000000000000000000000000000000000000000000000000000000008152600401611b1390613d36565b60405180910390fd5b7f360894a13ba1a3210667c828492db98dca3e2076cc3735a920a3ca505d382bbc60001b8114611b81576040517f08c379a0000000000000000000000000000000000000000000000000000000008152600401611b7890613dc8565b60405180910390fd5b50611b8d8383836123af565b5b505050565b611b9b610c06565b611bda576040517f08c379a0000000000000000000000000000000000000000000000000000000008152600401611bd190613e34565b60405180910390fd5b6000606560006101000a81548160ff0219169083151502179055507f5db9ee0a495bf2e6ff9c91a7834c1ba4fdd244a5e8aa4e537bd38aeae4b073aa611c1e61142c565b604051611c2b9190613018565b60405180910390a1565b600073ffffffffffffffffffffffffffffffffffffffff168273ffffffffffffffffffffffffffffffffffffffff161415611ca5576040517f08c379a0000000000000000000000000000000000000000000000000000000008152600401611c9c90613ea0565b60405180910390fd5b611cb1600083836121bb565b8060356000828254611cc39190613321565b9250508190555080603360008473ffffffffffffffffffffffffffffffffffffffff1673ffffffffffffffffffffffffffffffffffffffff1681526020019081526020016000206000828254611d199190613321565b925050819055508173ffffffffffffffffffffffffffffffffffffffff16600073ffffffffffffffffffffffffffffffffffffffff167fddf252ad1be2c89b69c2b068fc378daa952ba7f163c4a11628f55a4df523b3ef83604051611d7e9190612d72565b60405180910390a3611d926000838361228f565b5050565b6000609760009054906101000a900473ffffffffffffffffffffffffffffffffffffffff16905081609760006101000a81548173ffffffffffffffffffffffffffffffffffffffff021916908373ffffffffffffffffffffffffffffffffffffffff1602179055508173ffffffffffffffffffffffffffffffffffffffff168173ffffffffffffffffffffffffffffffffffffffff167f8be0079c531659141344cd1fd0a4f28419497f9722a3daafe3b4186f6b6457e060405160405180910390a35050565b600081600001549050919050565b6000611e7530611409565b15905090565b600060019054906101000a900460ff16611eca576040517f08c379a0000000000000000000000000000000000000000000000000000000008152600401611ec190613f32565b60405180910390fd5b611ed482826123db565b5050565b600060019054906101000a900460ff16611f27576040517f08c379a0000000000000000000000000000000000000000000000000000000008152600401611f1e90613f32565b60405180910390fd5b611f2f61245c565b565b600060019054906101000a900460ff16611f80576040517f08c379a0000000000000000000000000000000000000000000000000000000008152600401611f7790613f32565b60405180910390fd5b611f886124c8565b565b600060019054906101000a900460ff16611fd9576040517f08c379a0000000000000000000000000000000000000000000000000000000008152600401611fd090613f32565b60405180910390fd5b612018816040518060400160405280600181526020017f3100000000000000000000000000000000000000000000000000000000000000815250612529565b612021816125a4565b50565b600060019054906101000a900460ff16612073576040517f08c379a000000000000000000000000000000000000000000000000000000000815260040161206a90613f32565b60405180910390fd5b565b61207d610c06565b156120bd576040517f08c379a00000000000000000000000000000000000000000000000000000000081526004016120b490613f9e565b60405180910390fd5b6001606560006101000a81548160ff0219169083151502179055507f62e78cea01bee320cd4e420270b5ea74000d11b0c9f74754ebdbfc544b05a25861210161142c565b60405161210e9190613018565b60405180910390a1565b60008060fd60008473ffffffffffffffffffffffffffffffffffffffff1673ffffffffffffffffffffffffffffffffffffffff168152602001908152602001600020905061216581611e5c565b91506121708161261d565b50919050565b600061218961218361190f565b83612633565b9050919050565b60008060006121a187878787612666565b915091506121ae81612773565b8192505050949350505050565b6121c361142c565b73ffffffffffffffffffffffffffffffffffffffff166121e1610f9d565b73ffffffffffffffffffffffffffffffffffffffff1614612237576040517f08c379a000000000000000000000000000000000000000000000000000000000815260040161222e906133c3565b60405180910390fd5b61223f610c06565b1561227f576040517f08c379a000000000000000000000000000000000000000000000000000000000815260040161227690613f9e565b60405180910390fd5b61228a838383612948565b505050565b505050565b600060c954905090565b600060ca54905090565b600083838346306040516020016122c3959493929190613fbe565b6040516020818303038152906040528051906020012090509392505050565b6000819050919050565b6000819050919050565b6122ff81611409565b61233e576040517f08c379a000000000000000000000000000000000000000000000000000000000815260040161233590614083565b60405180910390fd5b8061236b7f360894a13ba1a3210667c828492db98dca3e2076cc3735a920a3ca505d382bbc60001b6122e2565b60000160006101000a81548173ffffffffffffffffffffffffffffffffffffffff021916908373ffffffffffffffffffffffffffffffffffffffff16021790555050565b6123b88361294d565b6000825111806123c55750805b156123d6576123d4838361299c565b505b505050565b600060019054906101000a900460ff1661242a576040517f08c379a000000000000000000000000000000000000000000000000000000000815260040161242190613f32565b60405180910390fd5b8160369080519060200190612440929190612ae7565b508060379080519060200190612457929190612ae7565b505050565b600060019054906101000a900460ff166124ab576040517f08c379a00000000000000000000000000000000000000000000000000000000081526004016124a290613f32565b60405180910390fd5b6000606560006101000a81548160ff021916908315150217905550565b600060019054906101000a900460ff16612517576040517f08c379a000000000000000000000000000000000000000000000000000000000815260040161250e90613f32565b60405180910390fd5b61252761252261142c565b611d96565b565b600060019054906101000a900460ff16612578576040517f08c379a000000000000000000000000000000000000000000000000000000000815260040161256f90613f32565b60405180910390fd5b6000828051906020012090506000828051906020012090508160c9819055508060ca8190555050505050565b600060019054906101000a900460ff166125f3576040517f08c379a00000000000000000000000000000000000000000000000000000000081526004016125ea90613f32565b60405180910390fd5b7f6e71edae12b1b97f4d1f60370fef10105fa2faae0126114a169c64845d6126c960fe8190555050565b6001816000016000828254019250508190555050565b6000828260405160200161264892919061411b565b60405160208183030381529060405280519060200120905092915050565b6000807f7fffffffffffffffffffffffffffffff5d576e7357a4501ddfe92f46681b20a08360001c11156126a157600060039150915061276a565b601b8560ff16141580156126b95750601c8560ff1614155b156126cb57600060049150915061276a565b6000600187878787604051600081526020016040526040516126f09493929190614152565b6020604051602081039080840390855afa158015612712573d6000803e3d6000fd5b505050602060405103519050600073ffffffffffffffffffffffffffffffffffffffff168173ffffffffffffffffffffffffffffffffffffffff1614156127615760006001925092505061276a565b80600092509250505b94509492505050565b6000600481111561278757612786614197565b5b81600481111561279a57612799614197565b5b14156127a557612945565b600160048111156127b9576127b8614197565b5b8160048111156127cc576127cb614197565b5b141561280d576040517f08c379a000000000000000000000000000000000000000000000000000000000815260040161280490614212565b60405180910390fd5b6002600481111561282157612820614197565b5b81600481111561283457612833614197565b5b1415612875576040517f08c379a000000000000000000000000000000000000000000000000000000000815260040161286c9061427e565b60405180910390fd5b6003600481111561288957612888614197565b5b81600481111561289c5761289b614197565b5b14156128dd576040517f08c379a00000000000000000000000000000000000000000000000000000000081526004016128d490614310565b60405180910390fd5b6004808111156128f0576128ef614197565b5b81600481111561290357612902614197565b5b1415612944576040517f08c379a000000000000000000000000000000000000000000000000000000000815260040161293b906143a2565b60405180910390fd5b5b50565b505050565b612956816122f6565b8073ffffffffffffffffffffffffffffffffffffffff167fbc7cd75a20ee27fd9adebab32041f755214dbc6bffa90cc0225b39da2e5c2d3b60405160405180910390a250565b60606129a783611409565b6129e6576040517f08c379a00000000000000000000000000000000000000000000000000000000081526004016129dd90614434565b60405180910390fd5b6000808473ffffffffffffffffffffffffffffffffffffffff1684604051612a0e919061449b565b600060405180830381855af49150503d8060008114612a49576040519150601f19603f3d011682016040523d82523d6000602084013e612a4e565b606091505b5091509150612a7682826040518060600160405280602781526020016144b360279139612a80565b9250505092915050565b60608315612a9057829050612ae0565b600083511115612aa35782518084602001fd5b816040517f08c379a0000000000000000000000000000000000000000000000000000000008152600401612ad79190612c23565b60405180910390fd5b9392505050565b828054612af39061319c565b90600052602060002090601f016020900481019282612b155760008555612b5c565b82601f10612b2e57805160ff1916838001178555612b5c565b82800160010185558215612b5c579182015b82811115612b5b578251825591602001919060010190612b40565b5b509050612b699190612b6d565b5090565b5b80821115612b86576000816000905550600101612b6e565b5090565b600081519050919050565b600082825260208201905092915050565b60005b83811015612bc4578082015181840152602081019050612ba9565b83811115612bd3576000848401525b50505050565b6000601f19601f8301169050919050565b6000612bf582612b8a565b612bff8185612b95565b9350612c0f818560208601612ba6565b612c1881612bd9565b840191505092915050565b60006020820190508181036000830152612c3d8184612bea565b905092915050565b6000604051905090565b600080fd5b600080fd5b600073ffffffffffffffffffffffffffffffffffffffff82169050919050565b6000612c8482612c59565b9050919050565b612c9481612c79565b8114612c9f57600080fd5b50565b600081359050612cb181612c8b565b92915050565b6000819050919050565b612cca81612cb7565b8114612cd557600080fd5b50565b600081359050612ce781612cc1565b92915050565b60008060408385031215612d0457612d03612c4f565b5b6000612d1285828601612ca2565b9250506020612d2385828601612cd8565b9150509250929050565b60008115159050919050565b612d4281612d2d565b82525050565b6000602082019050612d5d6000830184612d39565b92915050565b612d6c81612cb7565b82525050565b6000602082019050612d876000830184612d63565b92915050565b600080600060608486031215612da657612da5612c4f565b5b6000612db486828701612ca2565b9350506020612dc586828701612ca2565b9250506040612dd686828701612cd8565b9150509250925092565b600060ff82169050919050565b612df681612de0565b82525050565b6000602082019050612e116000830184612ded565b92915050565b6000819050919050565b612e2a81612e17565b82525050565b6000602082019050612e456000830184612e21565b92915050565b600060208284031215612e6157612e60612c4f565b5b6000612e6f84828501612ca2565b91505092915050565b600080fd5b600080fd5b7f4e487b7100000000000000000000000000000000000000000000000000000000600052604160045260246000fd5b612eba82612bd9565b810181811067ffffffffffffffff82111715612ed957612ed8612e82565b5b80604052505050565b6000612eec612c45565b9050612ef88282612eb1565b919050565b600067ffffffffffffffff821115612f1857612f17612e82565b5b612f2182612bd9565b9050602081019050919050565b82818337600083830152505050565b6000612f50612f4b84612efd565b612ee2565b905082815260208101848484011115612f6c57612f6b612e7d565b5b612f77848285612f2e565b509392505050565b600082601f830112612f9457612f93612e78565b5b8135612fa4848260208601612f3d565b91505092915050565b60008060408385031215612fc457612fc3612c4f565b5b6000612fd285828601612ca2565b925050602083013567ffffffffffffffff811115612ff357612ff2612c54565b5b612fff85828601612f7f565b9150509250929050565b61301281612c79565b82525050565b600060208201905061302d6000830184613009565b92915050565b61303c81612de0565b811461304757600080fd5b50565b60008135905061305981613033565b92915050565b61306881612e17565b811461307357600080fd5b50565b6000813590506130858161305f565b92915050565b600080600080600080600060e0888a0312156130aa576130a9612c4f565b5b60006130b88a828b01612ca2565b97505060206130c98a828b01612ca2565b96505060406130da8a828b01612cd8565b95505060606130eb8a828b01612cd8565b94505060806130fc8a828b0161304a565b93505060a061310d8a828b01613076565b92505060c061311e8a828b01613076565b91505092959891949750929550565b6000806040838503121561314457613143612c4f565b5b600061315285828601612ca2565b925050602061316385828601612ca2565b9150509250929050565b7f4e487b7100000000000000000000000000000000000000000000000000000000600052602260045260246000fd5b600060028204905060018216806131b457607f821691505b602082108114156131c8576131c761316d565b5b50919050565b7f46756e6374696f6e206d7573742062652063616c6c6564207468726f7567682060008201527f64656c656761746563616c6c0000000000000000000000000000000000000000602082015250565b600061322a602c83612b95565b9150613235826131ce565b604082019050919050565b600060208201905081810360008301526132598161321d565b9050919050565b7f46756e6374696f6e206d7573742062652063616c6c6564207468726f7567682060008201527f6163746976652070726f78790000000000000000000000000000000000000000602082015250565b60006132bc602c83612b95565b91506132c782613260565b604082019050919050565b600060208201905081810360008301526132eb816132af565b9050919050565b7f4e487b7100000000000000000000000000000000000000000000000000000000600052601160045260246000fd5b600061332c82612cb7565b915061333783612cb7565b9250827fffffffffffffffffffffffffffffffffffffffffffffffffffffffffffffffff0382111561336c5761336b6132f2565b5b828201905092915050565b7f4f776e61626c653a2063616c6c6572206973206e6f7420746865206f776e6572600082015250565b60006133ad602083612b95565b91506133b882613377565b602082019050919050565b600060208201905081810360008301526133dc816133a0565b9050919050565b7f555550535570677261646561626c653a206d757374206e6f742062652063616c60008201527f6c6564207468726f7567682064656c656761746563616c6c0000000000000000602082015250565b600061343f603883612b95565b915061344a826133e3565b604082019050919050565b6000602082019050818103600083015261346e81613432565b9050919050565b7f496e697469616c697a61626c653a20636f6e747261637420697320616c72656160008201527f647920696e697469616c697a6564000000000000000000000000000000000000602082015250565b60006134d1602e83612b95565b91506134dc82613475565b604082019050919050565b60006020820190508181036000830152613500816134c4565b9050919050565b60008160011c9050919050565b6000808291508390505b600185111561355e5780860481111561353a576135396132f2565b5b60018516156135495780820291505b808102905061355785613507565b945061351e565b94509492505050565b6000826135775760019050613633565b816135855760009050613633565b816001811461359b57600281146135a5576135d4565b6001915050613633565b60ff8411156135b7576135b66132f2565b5b8360020a9150848211156135ce576135cd6132f2565b5b50613633565b5060208310610133831016604e8410600b84101617156136095782820a905083811115613604576136036132f2565b5b613633565b6136168484846001613514565b9250905081840481111561362d5761362c6132f2565b5b81810290505b9392505050565b600061364582612cb7565b915061365083612de0565b925061367d7fffffffffffffffffffffffffffffffffffffffffffffffffffffffffffffffff8484613567565b905092915050565b600061369082612cb7565b915061369b83612cb7565b9250817fffffffffffffffffffffffffffffffffffffffffffffffffffffffffffffffff04831182151516156136d4576136d36132f2565b5b828202905092915050565b7f45524332303a2064656372656173656420616c6c6f77616e63652062656c6f7760008201527f207a65726f000000000000000000000000000000000000000000000000000000602082015250565b600061373b602583612b95565b9150613746826136df565b604082019050919050565b6000602082019050818103600083015261376a8161372e565b9050919050565b7f45524332305065726d69743a206578706972656420646561646c696e65000000600082015250565b60006137a7601d83612b95565b91506137b282613771565b602082019050919050565b600060208201905081810360008301526137d68161379a565b9050919050565b600060c0820190506137f26000830189612e21565b6137ff6020830188613009565b61380c6040830187613009565b6138196060830186612d63565b6138266080830185612d63565b61383360a0830184612d63565b979650505050505050565b7f45524332305065726d69743a20696e76616c6964207369676e61747572650000600082015250565b6000613874601e83612b95565b915061387f8261383e565b602082019050919050565b600060208201905081810360008301526138a381613867565b9050919050565b7f4f776e61626c653a206e6577206f776e657220697320746865207a65726f206160008201527f6464726573730000000000000000000000000000000000000000000000000000602082015250565b6000613906602683612b95565b9150613911826138aa565b604082019050919050565b60006020820190508181036000830152613935816138f9565b9050919050565b7f45524332303a20617070726f76652066726f6d20746865207a65726f2061646460008201527f7265737300000000000000000000000000000000000000000000000000000000602082015250565b6000613998602483612b95565b91506139a38261393c565b604082019050919050565b600060208201905081810360008301526139c78161398b565b9050919050565b7f45524332303a20617070726f766520746f20746865207a65726f20616464726560008201527f7373000000000000000000000000000000000000000000000000000000000000602082015250565b6000613a2a602283612b95565b9150613a35826139ce565b604082019050919050565b60006020820190508181036000830152613a5981613a1d565b9050919050565b7f45524332303a20696e73756666696369656e7420616c6c6f77616e6365000000600082015250565b6000613a96601d83612b95565b9150613aa182613a60565b602082019050919050565b60006020820190508181036000830152613ac581613a89565b9050919050565b7f45524332303a207472616e736665722066726f6d20746865207a65726f20616460008201527f6472657373000000000000000000000000000000000000000000000000000000602082015250565b6000613b28602583612b95565b9150613b3382613acc565b604082019050919050565b60006020820190508181036000830152613b5781613b1b565b9050919050565b7f45524332303a207472616e7366657220746f20746865207a65726f206164647260008201527f6573730000000000000000000000000000000000000000000000000000000000602082015250565b6000613bba602383612b95565b9150613bc582613b5e565b604082019050919050565b60006020820190508181036000830152613be981613bad565b9050919050565b7f45524332303a207472616e7366657220616d6f756e742065786365656473206260008201527f616c616e63650000000000000000000000000000000000000000000000000000602082015250565b6000613c4c602683612b95565b9150613c5782613bf0565b604082019050919050565b60006020820190508181036000830152613c7b81613c3f565b9050919050565b600081519050613c918161305f565b92915050565b600060208284031215613cad57613cac612c4f565b5b6000613cbb84828501613c82565b91505092915050565b7f45524331393637557067726164653a206e657720696d706c656d656e7461746960008201527f6f6e206973206e6f742055555053000000000000000000000000000000000000602082015250565b6000613d20602e83612b95565b9150613d2b82613cc4565b604082019050919050565b60006020820190508181036000830152613d4f81613d13565b9050919050565b7f45524331393637557067726164653a20756e737570706f727465642070726f7860008201527f6961626c65555549440000000000000000000000000000000000000000000000602082015250565b6000613db2602983612b95565b9150613dbd82613d56565b604082019050919050565b60006020820190508181036000830152613de181613da5565b9050919050565b7f5061757361626c653a206e6f7420706175736564000000000000000000000000600082015250565b6000613e1e601483612b95565b9150613e2982613de8565b602082019050919050565b60006020820190508181036000830152613e4d81613e11565b9050919050565b7f45524332303a206d696e7420746f20746865207a65726f206164647265737300600082015250565b6000613e8a601f83612b95565b9150613e9582613e54565b602082019050919050565b60006020820190508181036000830152613eb981613e7d565b9050919050565b7f496e697469616c697a61626c653a20636f6e7472616374206973206e6f74206960008201527f6e697469616c697a696e67000000000000000000000000000000000000000000602082015250565b6000613f1c602b83612b95565b9150613f2782613ec0565b604082019050919050565b60006020820190508181036000830152613f4b81613f0f565b9050919050565b7f5061757361626c653a2070617573656400000000000000000000000000000000600082015250565b6000613f88601083612b95565b9150613f9382613f52565b602082019050919050565b60006020820190508181036000830152613fb781613f7b565b9050919050565b600060a082019050613fd36000830188612e21565b613fe06020830187612e21565b613fed6040830186612e21565b613ffa6060830185612d63565b6140076080830184613009565b9695505050505050565b7f455243313936373a206e657720696d706c656d656e746174696f6e206973206e60008201527f6f74206120636f6e747261637400000000000000000000000000000000000000602082015250565b600061406d602d83612b95565b915061407882614011565b604082019050919050565b6000602082019050818103600083015261409c81614060565b9050919050565b600081905092915050565b7f1901000000000000000000000000000000000000000000000000000000000000600082015250565b60006140e46002836140a3565b91506140ef826140ae565b600282019050919050565b6000819050919050565b61411561411082612e17565b6140fa565b82525050565b6000614126826140d7565b91506141328285614104565b6020820191506141428284614104565b6020820191508190509392505050565b60006080820190506141676000830187612e21565b6141746020830186612ded565b6141816040830185612e21565b61418e6060830184612e21565b95945050505050565b7f4e487b7100000000000000000000000000000000000000000000000000000000600052602160045260246000fd5b7f45434453413a20696e76616c6964207369676e61747572650000000000000000600082015250565b60006141fc601883612b95565b9150614207826141c6565b602082019050919050565b6000602082019050818103600083015261422b816141ef565b9050919050565b7f45434453413a20696e76616c6964207369676e6174757265206c656e67746800600082015250565b6000614268601f83612b95565b915061427382614232565b602082019050919050565b600060208201905081810360008301526142978161425b565b9050919050565b7f45434453413a20696e76616c6964207369676e6174757265202773272076616c60008201527f7565000000000000000000000000000000000000000000000000000000000000602082015250565b60006142fa602283612b95565b91506143058261429e565b604082019050919050565b60006020820190508181036000830152614329816142ed565b9050919050565b7f45434453413a20696e76616c6964207369676e6174757265202776272076616c60008201527f7565000000000000000000000000000000000000000000000000000000000000602082015250565b600061438c602283612b95565b915061439782614330565b604082019050919050565b600060208201905081810360008301526143bb8161437f565b9050919050565b7f416464726573733a2064656c65676174652063616c6c20746f206e6f6e2d636f60008201527f6e74726163740000000000000000000000000000000000000000000000000000602082015250565b600061441e602683612b95565b9150614429826143c2565b604082019050919050565b6000602082019050818103600083015261444d81614411565b9050919050565b600081519050919050565b600081905092915050565b600061447582614454565b61447f818561445f565b935061448f818560208601612ba6565b80840191505092915050565b60006144a7828461446a565b91508190509291505056fe416464726573733a206c6f772d6c6576656c2064656c65676174652063616c6c206661696c6564a264697066735822122036e5b2fb02c708d377e03d911bd469892555321a90f7c792de8b621b5db56b2164736f6c634300080c0033",
  "immutableReferences": {
    "617": [
      {
        "length": 32,
        "start": 1743
      },
      {
        "length": 32,
        "start": 1886
      },
      {
        "length": 32,
        "start": 2578
      },
      {
        "length": 32,
        "start": 2721
      },
      {
        "length": 32,
        "start": 2897
      }
    ]
  },
  "source": "// SPDX-License-Identifier: MIT\r\npragma solidity ^0.8.4;\r\n\r\nimport \"@openzeppelin/contracts-upgradeable/security/PausableUpgradeable.sol\";\r\nimport \"@openzeppelin/contracts-upgradeable/access/OwnableUpgradeable.sol\";\r\nimport \"@openzeppelin/contracts-upgradeable/token/ERC20/extensions/draft-ERC20PermitUpgradeable.sol\";\r\nimport \"@openzeppelin/contracts-upgradeable/proxy/utils/Initializable.sol\";\r\nimport \"@openzeppelin/contracts-upgradeable/proxy/utils/UUPSUpgradeable.sol\";\r\nimport \"@openzeppelin/contracts-upgradeable/token/ERC20/ERC20Upgradeable.sol\";\r\n\r\ncontract ZCToken is Initializable, ERC20Upgradeable, PausableUpgradeable, OwnableUpgradeable, ERC20PermitUpgradeable, UUPSUpgradeable {\r\n    /// @custom:oz-upgrades-unsafe-allow constructor\r\n    constructor() initializer {}\r\n\r\n    function initialize() initializer public {\r\n        __ERC20_init(\"ZC-Token\", \"ZCT\");\r\n        __Pausable_init();\r\n        __Ownable_init();\r\n        __ERC20Permit_init(\"ZC-Token\");\r\n        __UUPSUpgradeable_init();\r\n\r\n        _mint(msg.sender, 10000000 * 10 ** decimals());\r\n    }\r\n\r\n    function pause() public onlyOwner {\r\n        _pause();\r\n    }\r\n\r\n    function unpause() public onlyOwner {\r\n        _unpause();\r\n    }\r\n\r\n    function mint(address to, uint256 amount) public onlyOwner {\r\n        _mint(to, amount);\r\n    }\r\n\r\n    function _beforeTokenTransfer(address from, address to, uint256 amount)\r\n    internal\r\n    onlyOwner\r\n    whenNotPaused\r\n    override\r\n    {\r\n        super._beforeTokenTransfer(from, to, amount);\r\n    }\r\n\r\n    function _authorizeUpgrade(address newImplementation)\r\n    internal\r\n    onlyOwner\r\n    override\r\n    {}\r\n}",
  "sourcePath": "C:\\Users\\c1847017\\Documents\\ZeroCarbon2030\\zc2030\\blockchain\\smart-contracts\\contracts\\ZCToken.sol",
  "compiler": {
    "name": "solc",
    "version": "0.8.12+commit.f00d7308.Emscripten.clang"
  },
  "schemaVersion": "3.4.6",
  "updatedAt": "2022-03-22T11:51:17.462Z",
  "networkType": "ethereum",
  "devdoc": {
    "kind": "dev",
    "methods": {
      "DOMAIN_SEPARATOR()": {
        "details": "See {IERC20Permit-DOMAIN_SEPARATOR}."
      },
      "allowance(address,address)": {
        "details": "See {IERC20-allowance}."
      },
      "approve(address,uint256)": {
        "details": "See {IERC20-approve}. NOTE: If `amount` is the maximum `uint256`, the allowance is not updated on `transferFrom`. This is semantically equivalent to an infinite approval. Requirements: - `spender` cannot be the zero address."
      },
      "balanceOf(address)": {
        "details": "See {IERC20-balanceOf}."
      },
      "constructor": {
        "custom:oz-upgrades-unsafe-allow": "constructor"
      },
      "decimals()": {
        "details": "Returns the number of decimals used to get its user representation. For example, if `decimals` equals `2`, a balance of `505` tokens should be displayed to a user as `5.05` (`505 / 10 ** 2`). Tokens usually opt for a value of 18, imitating the relationship between Ether and Wei. This is the value {ERC20} uses, unless this function is overridden; NOTE: This information is only used for _display_ purposes: it in no way affects any of the arithmetic of the contract, including {IERC20-balanceOf} and {IERC20-transfer}."
      },
      "decreaseAllowance(address,uint256)": {
        "details": "Atomically decreases the allowance granted to `spender` by the caller. This is an alternative to {approve} that can be used as a mitigation for problems described in {IERC20-approve}. Emits an {Approval} event indicating the updated allowance. Requirements: - `spender` cannot be the zero address. - `spender` must have allowance for the caller of at least `subtractedValue`."
      },
      "increaseAllowance(address,uint256)": {
        "details": "Atomically increases the allowance granted to `spender` by the caller. This is an alternative to {approve} that can be used as a mitigation for problems described in {IERC20-approve}. Emits an {Approval} event indicating the updated allowance. Requirements: - `spender` cannot be the zero address."
      },
      "name()": {
        "details": "Returns the name of the token."
      },
      "nonces(address)": {
        "details": "See {IERC20Permit-nonces}."
      },
      "owner()": {
        "details": "Returns the address of the current owner."
      },
      "paused()": {
        "details": "Returns true if the contract is paused, and false otherwise."
      },
      "permit(address,address,uint256,uint256,uint8,bytes32,bytes32)": {
        "details": "See {IERC20Permit-permit}."
      },
      "proxiableUUID()": {
        "details": "Implementation of the ERC1822 {proxiableUUID} function. This returns the storage slot used by the implementation. It is used to validate that the this implementation remains valid after an upgrade. IMPORTANT: A proxy pointing at a proxiable contract should not be considered proxiable itself, because this risks bricking a proxy that upgrades to it, by delegating to itself until out of gas. Thus it is critical that this function revert if invoked through a proxy. This is guaranteed by the `notDelegated` modifier."
      },
      "renounceOwnership()": {
        "details": "Leaves the contract without owner. It will not be possible to call `onlyOwner` functions anymore. Can only be called by the current owner. NOTE: Renouncing ownership will leave the contract without an owner, thereby removing any functionality that is only available to the owner."
      },
      "symbol()": {
        "details": "Returns the symbol of the token, usually a shorter version of the name."
      },
      "totalSupply()": {
        "details": "See {IERC20-totalSupply}."
      },
      "transfer(address,uint256)": {
        "details": "See {IERC20-transfer}. Requirements: - `to` cannot be the zero address. - the caller must have a balance of at least `amount`."
      },
      "transferFrom(address,address,uint256)": {
        "details": "See {IERC20-transferFrom}. Emits an {Approval} event indicating the updated allowance. This is not required by the EIP. See the note at the beginning of {ERC20}. NOTE: Does not update the allowance if the current allowance is the maximum `uint256`. Requirements: - `from` and `to` cannot be the zero address. - `from` must have a balance of at least `amount`. - the caller must have allowance for ``from``'s tokens of at least `amount`."
      },
      "transferOwnership(address)": {
        "details": "Transfers ownership of the contract to a new account (`newOwner`). Can only be called by the current owner."
      },
      "upgradeTo(address)": {
        "details": "Upgrade the implementation of the proxy to `newImplementation`. Calls {_authorizeUpgrade}. Emits an {Upgraded} event."
      },
      "upgradeToAndCall(address,bytes)": {
        "details": "Upgrade the implementation of the proxy to `newImplementation`, and subsequently execute the function call encoded in `data`. Calls {_authorizeUpgrade}. Emits an {Upgraded} event."
      }
    },
    "version": 1
  },
  "userdoc": {
    "kind": "user",
    "methods": {},
    "version": 1
  }
}